{
  "contractName": "TokenFarm",
  "abi": [
    {
      "inputs": [
        {
          "internalType": "contract DaiToken",
          "name": "_daiToken",
          "type": "address"
        },
        {
          "internalType": "contract DappToken",
          "name": "_dappToken",
          "type": "address"
        }
      ],
      "payable": false,
      "stateMutability": "nonpayable",
      "type": "constructor"
    },
    {
      "constant": true,
      "inputs": [],
      "name": "contractName",
      "outputs": [
        {
          "internalType": "string",
          "name": "",
          "type": "string"
        }
      ],
      "payable": false,
      "stateMutability": "view",
      "type": "function"
    },
    {
      "constant": true,
      "inputs": [
        {
          "internalType": "uint256",
          "name": "",
          "type": "uint256"
        }
      ],
      "name": "daiStakers",
      "outputs": [
        {
          "internalType": "address",
          "name": "",
          "type": "address"
        }
      ],
      "payable": false,
      "stateMutability": "view",
      "type": "function"
    },
    {
      "constant": true,
      "inputs": [],
      "name": "daiToken",
      "outputs": [
        {
          "internalType": "contract DaiToken",
          "name": "",
          "type": "address"
        }
      ],
      "payable": false,
      "stateMutability": "view",
      "type": "function"
    },
    {
      "constant": true,
      "inputs": [],
      "name": "dappToken",
      "outputs": [
        {
          "internalType": "contract DappToken",
          "name": "",
          "type": "address"
        }
      ],
      "payable": false,
      "stateMutability": "view",
      "type": "function"
    },
    {
      "constant": true,
      "inputs": [
        {
          "internalType": "address",
          "name": "",
          "type": "address"
        }
      ],
      "name": "hasStaked",
      "outputs": [
        {
          "internalType": "bool",
          "name": "",
          "type": "bool"
        }
      ],
      "payable": false,
      "stateMutability": "view",
      "type": "function"
    },
    {
      "constant": true,
      "inputs": [
        {
          "internalType": "address",
          "name": "",
          "type": "address"
        }
      ],
      "name": "isStaking",
      "outputs": [
        {
          "internalType": "bool",
          "name": "",
          "type": "bool"
        }
      ],
      "payable": false,
      "stateMutability": "view",
      "type": "function"
    },
    {
      "constant": true,
      "inputs": [],
      "name": "owner",
      "outputs": [
        {
          "internalType": "address",
          "name": "",
          "type": "address"
        }
      ],
      "payable": false,
      "stateMutability": "view",
      "type": "function"
    },
    {
      "constant": true,
      "inputs": [
        {
          "internalType": "address",
          "name": "",
          "type": "address"
        }
      ],
      "name": "stakedDaiBalance",
      "outputs": [
        {
          "internalType": "uint256",
          "name": "",
          "type": "uint256"
        }
      ],
      "payable": false,
      "stateMutability": "view",
      "type": "function"
    },
    {
      "constant": false,
      "inputs": [
        {
          "internalType": "uint256",
          "name": "amountOfTokens",
          "type": "uint256"
        }
      ],
      "name": "stakeDaiTokens",
      "outputs": [],
      "payable": false,
      "stateMutability": "nonpayable",
      "type": "function"
    },
    {
      "constant": false,
      "inputs": [],
      "name": "issueDappTokens",
      "outputs": [],
      "payable": false,
      "stateMutability": "nonpayable",
      "type": "function"
    }
  ],
  "bytecode": "0x60806040526040518060400160405280601281526020017f4c616b7368697420546f6b656e204661726d00000000000000000000000000008152506000908051906020019061004f929190610164565b5034801561005c57600080fd5b50604051610dfc380380610dfc8339818101604052604081101561007f57600080fd5b81019080805190602001909291908051906020019092919050505081600160006101000a81548173ffffffffffffffffffffffffffffffffffffffff021916908373ffffffffffffffffffffffffffffffffffffffff16021790555080600260006101000a81548173ffffffffffffffffffffffffffffffffffffffff021916908373ffffffffffffffffffffffffffffffffffffffff16021790555033600360006101000a81548173ffffffffffffffffffffffffffffffffffffffff021916908373ffffffffffffffffffffffffffffffffffffffff1602179055505050610209565b828054600181600116156101000203166002900490600052602060002090601f016020900481019282601f106101a557805160ff19168380011785556101d3565b828001600101855582156101d3579182015b828111156101d25782518255916020019190600101906101b7565b5b5090506101e091906101e4565b5090565b61020691905b808211156102025760008160009055506001016101ea565b5090565b90565b610be4806102186000396000f3fe608060405234801561001057600080fd5b506004361061009e5760003560e01c806384f80e1a1161006657806384f80e1a146102445780638da5cb5b14610272578063be22f546146102bc578063c93c8f3414610306578063d379414b146103625761009e565b80635eb186f8146100a35780636775c707146100ed5780636b4a8fa51461015b5780636f49712b1461016557806375d0c0dc146101c1575b600080fd5b6100ab6103ba565b604051808273ffffffffffffffffffffffffffffffffffffffff1673ffffffffffffffffffffffffffffffffffffffff16815260200191505060405180910390f35b6101196004803603602081101561010357600080fd5b81019080803590602001909291905050506103e0565b604051808273ffffffffffffffffffffffffffffffffffffffff1673ffffffffffffffffffffffffffffffffffffffff16815260200191505060405180910390f35b61016361041c565b005b6101a76004803603602081101561017b57600080fd5b81019080803573ffffffffffffffffffffffffffffffffffffffff16906020019092919050505061071c565b604051808215151515815260200191505060405180910390f35b6101c961073c565b6040518080602001828103825283818151815260200191508051906020019080838360005b838110156102095780820151818401526020810190506101ee565b50505050905090810190601f1680156102365780820380516001836020036101000a031916815260200191505b509250505060405180910390f35b6102706004803603602081101561025a57600080fd5b81019080803590602001909291905050506107da565b005b61027a610b04565b604051808273ffffffffffffffffffffffffffffffffffffffff1673ffffffffffffffffffffffffffffffffffffffff16815260200191505060405180910390f35b6102c4610b2a565b604051808273ffffffffffffffffffffffffffffffffffffffff1673ffffffffffffffffffffffffffffffffffffffff16815260200191505060405180910390f35b6103486004803603602081101561031c57600080fd5b81019080803573ffffffffffffffffffffffffffffffffffffffff169060200190929190505050610b50565b604051808215151515815260200191505060405180910390f35b6103a46004803603602081101561037857600080fd5b81019080803573ffffffffffffffffffffffffffffffffffffffff169060200190929190505050610b70565b6040518082815260200191505060405180910390f35b600260009054906101000a900473ffffffffffffffffffffffffffffffffffffffff1681565b600481815481106103ed57fe5b906000526020600020016000915054906101000a900473ffffffffffffffffffffffffffffffffffffffff1681565b600360009054906101000a900473ffffffffffffffffffffffffffffffffffffffff1673ffffffffffffffffffffffffffffffffffffffff163373ffffffffffffffffffffffffffffffffffffffff16146104df576040517f08c379a00000000000000000000000000000000000000000000000000000000081526004018080602001828103825260188152602001807f6f6e6c79206f776e65722063616e2063616c6c2074686973000000000000000081525060200191505060405180910390fd5b60008090505b6004805490508110156107195760006004828154811061050157fe5b9060005260206000200160009054906101000a900473ffffffffffffffffffffffffffffffffffffffff1690506000600560008373ffffffffffffffffffffffffffffffffffffffff1673ffffffffffffffffffffffffffffffffffffffff1681526020019081526020016000205490506000808211156107095760008211801561059557506802b5e3af16b18800008211155b156105aa57678ac7230489e800009050610623565b603382101580156105c4575068056bc75e2d631000008211155b156105da576801158e460913d000009050610622565b606582101580156105f45750680821ab0d44149800008211155b1561060a576801a055690d9db800009050610621565b6096821115610620576802b5e3af16b188000090505b5b5b5b600260009054906101000a900473ffffffffffffffffffffffffffffffffffffffff1673ffffffffffffffffffffffffffffffffffffffff1663a9059cbb84836040518363ffffffff1660e01b8152600401808373ffffffffffffffffffffffffffffffffffffffff1673ffffffffffffffffffffffffffffffffffffffff16815260200182815260200192505050602060405180830381600087803b1580156106cc57600080fd5b505af11580156106e0573d6000803e3d6000fd5b505050506040513d60208110156106f657600080fd5b8101908080519060200190929190505050505b50505080806001019150506104e5565b50565b60076020528060005260406000206000915054906101000a900460ff1681565b60008054600181600116156101000203166002900480601f0160208091040260200160405190810160405280929190818152602001828054600181600116156101000203166002900480156107d25780601f106107a7576101008083540402835291602001916107d2565b820191906000526020600020905b8154815290600101906020018083116107b557829003601f168201915b505050505081565b60008111610833576040517f08c379a0000000000000000000000000000000000000000000000000000000008152600401808060200182810382526027815260200180610b896027913960400191505060405180910390fd5b600160009054906101000a900473ffffffffffffffffffffffffffffffffffffffff1673ffffffffffffffffffffffffffffffffffffffff166323b872dd3330846040518463ffffffff1660e01b8152600401808473ffffffffffffffffffffffffffffffffffffffff1673ffffffffffffffffffffffffffffffffffffffff1681526020018373ffffffffffffffffffffffffffffffffffffffff1673ffffffffffffffffffffffffffffffffffffffff1681526020018281526020019350505050602060405180830381600087803b15801561091057600080fd5b505af1158015610924573d6000803e3d6000fd5b505050506040513d602081101561093a57600080fd5b81019080805190602001909291905050505080600560003373ffffffffffffffffffffffffffffffffffffffff1673ffffffffffffffffffffffffffffffffffffffff16815260200190815260200160002060008282540192505081905550600660003373ffffffffffffffffffffffffffffffffffffffff1673ffffffffffffffffffffffffffffffffffffffff16815260200190815260200160002060009054906101000a900460ff16610a515760043390806001815401808255809150509060018203906000526020600020016000909192909190916101000a81548173ffffffffffffffffffffffffffffffffffffffff021916908373ffffffffffffffffffffffffffffffffffffffff160217905550505b6001600660003373ffffffffffffffffffffffffffffffffffffffff1673ffffffffffffffffffffffffffffffffffffffff16815260200190815260200160002060006101000a81548160ff0219169083151502179055506001600760003373ffffffffffffffffffffffffffffffffffffffff1673ffffffffffffffffffffffffffffffffffffffff16815260200190815260200160002060006101000a81548160ff02191690831515021790555050565b600360009054906101000a900473ffffffffffffffffffffffffffffffffffffffff1681565b600160009054906101000a900473ffffffffffffffffffffffffffffffffffffffff1681565b60066020528060005260406000206000915054906101000a900460ff1681565b6005602052806000526040600020600091509050548156fe4d6f7265207468616e20302064616920746f6b656e732073686f756c64206265207374616b6564a265627a7a723158204069cd757f85ed903c64a4a9c33264b6262eb3a0d75f4529d8e1a0847b31aa2964736f6c63430005100032",
  "source": "// SPDX-License-Identifier: MIT\r\npragma solidity >=0.4.22 <0.9.0;\r\n\r\nimport \"./DaiToken.sol\";\r\nimport \"./DappToken.sol\";\r\n\r\ncontract TokenFarm{\r\n    string public contractName = \"Lakshit Token Farm\";\r\n    DaiToken public daiToken;\r\n    DappToken public dappToken;\r\n    address public owner;\r\n\r\n    //constructor receives address of the deployed daitoken and dapptoken contract and then assigns it to separate state variables for further use and transactions\r\n    constructor(DaiToken _daiToken,DappToken _dappToken) public{\r\n        daiToken = _daiToken;\r\n        dappToken = _dappToken;\r\n        owner = msg.sender;\r\n    }\r\n\r\n    modifier onlyOwner(){\r\n        require(msg.sender == owner,\"only owner can call this\");\r\n        _;\r\n    }\r\n\r\n    address[] public daiStakers;\r\n    mapping(address => uint) public stakedDaiBalance;\r\n    mapping(address => bool) public hasStaked;\r\n    mapping(address => bool) public isStaking;\r\n\r\n    //function to stake dai tokens\r\n    function stakeDaiTokens(uint amountOfTokens) public{\r\n        require(amountOfTokens > 0,\"More than 0 dai tokens should be staked\");\r\n\r\n        daiToken.transferFrom(msg.sender,address(this),amountOfTokens);\r\n        stakedDaiBalance[msg.sender] += amountOfTokens;\r\n\r\n        if(!hasStaked[msg.sender])\r\n            daiStakers.push(msg.sender);\r\n        \r\n        hasStaked[msg.sender] = true;\r\n        \r\n        isStaking[msg.sender] = true;\r\n    }\r\n\r\n\r\n    //function to issue dapp tokens\r\n    function issueDappTokens() onlyOwner public{\r\n        \r\n        for(uint i = 0;i < daiStakers.length; i++){\r\n            address recpt = daiStakers[i];\r\n            uint stakedBalance = stakedDaiBalance[recpt];\r\n            uint issueAmount;\r\n            if(stakedBalance> 0){\r\n                if(stakedBalance>0 && stakedBalance <= (50 * 1 ether))\r\n                    issueAmount = (10 * 1 ether);\r\n                else if(stakedBalance>=51 && stakedBalance <= (100 * 1 ether))\r\n                    issueAmount = (20 * 1 ether);\r\n                else if(stakedBalance>=101 && stakedBalance <= (150 * 1 ether))\r\n                    issueAmount = (30 * 1 ether);\r\n                else if(stakedBalance > 150)\r\n                    issueAmount = (50 * 1 ether);\r\n                dappToken.transfer(recpt, issueAmount);\r\n            }\r\n        }\r\n    }\r\n}",
  "sourcePath": "C:\\Users\\KIIT\\Desktop\\ALL CODE ND STUFFS\\PROJECTS-REPOS\\web3 projects\\Dapps\\Token-Farm-Dapp\\src\\contracts\\TokenFarm.sol",
  "compiler": {
    "name": "solc",
    "version": "0.5.16+commit.9c3226ce.Emscripten.clang"
  },
  "schemaVersion": "3.4.5",
  "updatedAt": "2022-04-15T09:49:26.174Z",
  "devdoc": {
    "methods": {}
  },
  "userdoc": {
    "methods": {}
  }
}