{
  "contractName": "TokenFarm",
  "abi": [
    {
      "inputs": [
        {
          "internalType": "contract DaiToken",
          "name": "_daiToken",
          "type": "address"
        },
        {
          "internalType": "contract DappToken",
          "name": "_dappToken",
          "type": "address"
        }
      ],
      "payable": false,
      "stateMutability": "nonpayable",
      "type": "constructor"
    },
    {
      "constant": true,
      "inputs": [],
      "name": "contractName",
      "outputs": [
        {
          "internalType": "string",
          "name": "",
          "type": "string"
        }
      ],
      "payable": false,
      "stateMutability": "view",
      "type": "function"
    },
    {
      "constant": true,
      "inputs": [
        {
          "internalType": "uint256",
          "name": "",
          "type": "uint256"
        }
      ],
      "name": "daiStakers",
      "outputs": [
        {
          "internalType": "address",
          "name": "",
          "type": "address"
        }
      ],
      "payable": false,
      "stateMutability": "view",
      "type": "function"
    },
    {
      "constant": true,
      "inputs": [],
      "name": "daiToken",
      "outputs": [
        {
          "internalType": "contract DaiToken",
          "name": "",
          "type": "address"
        }
      ],
      "payable": false,
      "stateMutability": "view",
      "type": "function"
    },
    {
      "constant": true,
      "inputs": [],
      "name": "dappToken",
      "outputs": [
        {
          "internalType": "contract DappToken",
          "name": "",
          "type": "address"
        }
      ],
      "payable": false,
      "stateMutability": "view",
      "type": "function"
    },
    {
      "constant": true,
      "inputs": [
        {
          "internalType": "address",
          "name": "",
          "type": "address"
        }
      ],
      "name": "hasStaked",
      "outputs": [
        {
          "internalType": "bool",
          "name": "",
          "type": "bool"
        }
      ],
      "payable": false,
      "stateMutability": "view",
      "type": "function"
    },
    {
      "constant": true,
      "inputs": [
        {
          "internalType": "address",
          "name": "",
          "type": "address"
        }
      ],
      "name": "isStaking",
      "outputs": [
        {
          "internalType": "bool",
          "name": "",
          "type": "bool"
        }
      ],
      "payable": false,
      "stateMutability": "view",
      "type": "function"
    },
    {
      "constant": true,
      "inputs": [],
      "name": "owner",
      "outputs": [
        {
          "internalType": "address",
          "name": "",
          "type": "address"
        }
      ],
      "payable": false,
      "stateMutability": "view",
      "type": "function"
    },
    {
      "constant": true,
      "inputs": [
        {
          "internalType": "address",
          "name": "",
          "type": "address"
        }
      ],
      "name": "stakedDaiBalance",
      "outputs": [
        {
          "internalType": "uint256",
          "name": "",
          "type": "uint256"
        }
      ],
      "payable": false,
      "stateMutability": "view",
      "type": "function"
    },
    {
      "constant": false,
      "inputs": [
        {
          "internalType": "uint256",
          "name": "amountOfTokens",
          "type": "uint256"
        }
      ],
      "name": "stakeDaiTokens",
      "outputs": [],
      "payable": false,
      "stateMutability": "nonpayable",
      "type": "function"
    },
    {
      "constant": false,
      "inputs": [
        {
          "internalType": "uint256",
          "name": "amountToUnstake",
          "type": "uint256"
        },
        {
          "internalType": "bool",
          "name": "totalUnstake",
          "type": "bool"
        }
      ],
      "name": "unstakeDaiTokens",
      "outputs": [],
      "payable": false,
      "stateMutability": "nonpayable",
      "type": "function"
    },
    {
      "constant": false,
      "inputs": [],
      "name": "issueDappTokens",
      "outputs": [],
      "payable": false,
      "stateMutability": "nonpayable",
      "type": "function"
    }
  ],
  "bytecode": "0x60806040526040518060400160405280601281526020017f4c616b7368697420546f6b656e204661726d00000000000000000000000000008152506000908051906020019061004f929190610164565b5034801561005c57600080fd5b506040516110b33803806110b38339818101604052604081101561007f57600080fd5b81019080805190602001909291908051906020019092919050505081600160006101000a81548173ffffffffffffffffffffffffffffffffffffffff021916908373ffffffffffffffffffffffffffffffffffffffff16021790555080600260006101000a81548173ffffffffffffffffffffffffffffffffffffffff021916908373ffffffffffffffffffffffffffffffffffffffff16021790555033600360006101000a81548173ffffffffffffffffffffffffffffffffffffffff021916908373ffffffffffffffffffffffffffffffffffffffff1602179055505050610209565b828054600181600116156101000203166002900490600052602060002090601f016020900481019282601f106101a557805160ff19168380011785556101d3565b828001600101855582156101d3579182015b828111156101d25782518255916020019190600101906101b7565b5b5090506101e091906101e4565b5090565b61020691905b808211156102025760008160009055506001016101ea565b5090565b90565b610e9b806102186000396000f3fe608060405234801561001057600080fd5b50600436106100a95760003560e01c806375d0c0dc1161007157806375d0c0dc1461020657806384f80e1a146102895780638da5cb5b146102b7578063be22f54614610301578063c93c8f341461034b578063d379414b146103a7576100a9565b806318d04d75146100ae5780635eb186f8146100e85780636775c707146101325780636b4a8fa5146101a05780636f49712b146101aa575b600080fd5b6100e6600480360360408110156100c457600080fd5b81019080803590602001909291908035151590602001909291905050506103ff565b005b6100f061063c565b604051808273ffffffffffffffffffffffffffffffffffffffff1673ffffffffffffffffffffffffffffffffffffffff16815260200191505060405180910390f35b61015e6004803603602081101561014857600080fd5b8101908080359060200190929190505050610662565b604051808273ffffffffffffffffffffffffffffffffffffffff1673ffffffffffffffffffffffffffffffffffffffff16815260200191505060405180910390f35b6101a861069e565b005b6101ec600480360360208110156101c057600080fd5b81019080803573ffffffffffffffffffffffffffffffffffffffff16906020019092919050505061099e565b604051808215151515815260200191505060405180910390f35b61020e6109be565b6040518080602001828103825283818151815260200191508051906020019080838360005b8381101561024e578082015181840152602081019050610233565b50505050905090810190601f16801561027b5780820380516001836020036101000a031916815260200191505b509250505060405180910390f35b6102b56004803603602081101561029f57600080fd5b8101908080359060200190929190505050610a5c565b005b6102bf610d86565b604051808273ffffffffffffffffffffffffffffffffffffffff1673ffffffffffffffffffffffffffffffffffffffff16815260200191505060405180910390f35b610309610dac565b604051808273ffffffffffffffffffffffffffffffffffffffff1673ffffffffffffffffffffffffffffffffffffffff16815260200191505060405180910390f35b61038d6004803603602081101561036157600080fd5b81019080803573ffffffffffffffffffffffffffffffffffffffff169060200190929190505050610dd2565b604051808215151515815260200191505060405180910390f35b6103e9600480360360208110156103bd57600080fd5b81019080803573ffffffffffffffffffffffffffffffffffffffff169060200190929190505050610df2565b6040518082815260200191505060405180910390f35b6000600560003373ffffffffffffffffffffffffffffffffffffffff1673ffffffffffffffffffffffffffffffffffffffff1681526020019081526020016000205490506000811161049c576040517f08c379a0000000000000000000000000000000000000000000000000000000008152600401808060200182810382526035815260200180610e326035913960400191505060405180910390fd5b81156104a6578092505b600160009054906101000a900473ffffffffffffffffffffffffffffffffffffffff1673ffffffffffffffffffffffffffffffffffffffff1663a9059cbb33856040518363ffffffff1660e01b8152600401808373ffffffffffffffffffffffffffffffffffffffff1673ffffffffffffffffffffffffffffffffffffffff16815260200182815260200192505050602060405180830381600087803b15801561054f57600080fd5b505af1158015610563573d6000803e3d6000fd5b505050506040513d602081101561057957600080fd5b81019080805190602001909291905050505082600560003373ffffffffffffffffffffffffffffffffffffffff1673ffffffffffffffffffffffffffffffffffffffff168152602001908152602001600020600082825403925050819055508115610637576000600760003373ffffffffffffffffffffffffffffffffffffffff1673ffffffffffffffffffffffffffffffffffffffff16815260200190815260200160002060006101000a81548160ff0219169083151502179055505b505050565b600260009054906101000a900473ffffffffffffffffffffffffffffffffffffffff1681565b6004818154811061066f57fe5b906000526020600020016000915054906101000a900473ffffffffffffffffffffffffffffffffffffffff1681565b600360009054906101000a900473ffffffffffffffffffffffffffffffffffffffff1673ffffffffffffffffffffffffffffffffffffffff163373ffffffffffffffffffffffffffffffffffffffff1614610761576040517f08c379a00000000000000000000000000000000000000000000000000000000081526004018080602001828103825260188152602001807f6f6e6c79206f776e65722063616e2063616c6c2074686973000000000000000081525060200191505060405180910390fd5b60008090505b60048054905081101561099b5760006004828154811061078357fe5b9060005260206000200160009054906101000a900473ffffffffffffffffffffffffffffffffffffffff1690506000600560008373ffffffffffffffffffffffffffffffffffffffff1673ffffffffffffffffffffffffffffffffffffffff16815260200190815260200160002054905060008082111561098b5760008211801561081757506802b5e3af16b18800008211155b1561082c57678ac7230489e8000090506108a5565b60338210158015610846575068056bc75e2d631000008211155b1561085c576801158e460913d0000090506108a4565b606582101580156108765750680821ab0d44149800008211155b1561088c576801a055690d9db8000090506108a3565b60968211156108a2576802b5e3af16b188000090505b5b5b5b600260009054906101000a900473ffffffffffffffffffffffffffffffffffffffff1673ffffffffffffffffffffffffffffffffffffffff1663a9059cbb84836040518363ffffffff1660e01b8152600401808373ffffffffffffffffffffffffffffffffffffffff1673ffffffffffffffffffffffffffffffffffffffff16815260200182815260200192505050602060405180830381600087803b15801561094e57600080fd5b505af1158015610962573d6000803e3d6000fd5b505050506040513d602081101561097857600080fd5b8101908080519060200190929190505050505b5050508080600101915050610767565b50565b60076020528060005260406000206000915054906101000a900460ff1681565b60008054600181600116156101000203166002900480601f016020809104026020016040519081016040528092919081815260200182805460018160011615610100020316600290048015610a545780601f10610a2957610100808354040283529160200191610a54565b820191906000526020600020905b815481529060010190602001808311610a3757829003601f168201915b505050505081565b60008111610ab5576040517f08c379a0000000000000000000000000000000000000000000000000000000008152600401808060200182810382526027815260200180610e0b6027913960400191505060405180910390fd5b600160009054906101000a900473ffffffffffffffffffffffffffffffffffffffff1673ffffffffffffffffffffffffffffffffffffffff166323b872dd3330846040518463ffffffff1660e01b8152600401808473ffffffffffffffffffffffffffffffffffffffff1673ffffffffffffffffffffffffffffffffffffffff1681526020018373ffffffffffffffffffffffffffffffffffffffff1673ffffffffffffffffffffffffffffffffffffffff1681526020018281526020019350505050602060405180830381600087803b158015610b9257600080fd5b505af1158015610ba6573d6000803e3d6000fd5b505050506040513d6020811015610bbc57600080fd5b81019080805190602001909291905050505080600560003373ffffffffffffffffffffffffffffffffffffffff1673ffffffffffffffffffffffffffffffffffffffff16815260200190815260200160002060008282540192505081905550600660003373ffffffffffffffffffffffffffffffffffffffff1673ffffffffffffffffffffffffffffffffffffffff16815260200190815260200160002060009054906101000a900460ff16610cd35760043390806001815401808255809150509060018203906000526020600020016000909192909190916101000a81548173ffffffffffffffffffffffffffffffffffffffff021916908373ffffffffffffffffffffffffffffffffffffffff160217905550505b6001600660003373ffffffffffffffffffffffffffffffffffffffff1673ffffffffffffffffffffffffffffffffffffffff16815260200190815260200160002060006101000a81548160ff0219169083151502179055506001600760003373ffffffffffffffffffffffffffffffffffffffff1673ffffffffffffffffffffffffffffffffffffffff16815260200190815260200160002060006101000a81548160ff02191690831515021790555050565b600360009054906101000a900473ffffffffffffffffffffffffffffffffffffffff1681565b600160009054906101000a900473ffffffffffffffffffffffffffffffffffffffff1681565b60066020528060005260406000206000915054906101000a900460ff1681565b6005602052806000526040600020600091509050548156fe4d6f7265207468616e20302064616920746f6b656e732073686f756c64206265207374616b65644d6f7265207468616e20302064616920746f6b656e732073686f756c64206265207374616b656420666f7220756e7374616b696e67a265627a7a72315820bfcb67b1b4c7d2eb190ea2a7c8b1cef593fd384b2afa824f61422540c96f55ff64736f6c63430005100032",
  "source": "// SPDX-License-Identifier: MIT\r\npragma solidity >=0.4.22 <0.9.0;\r\n\r\nimport \"./DaiToken.sol\";\r\nimport \"./DappToken.sol\";\r\n\r\ncontract TokenFarm{\r\n    string public contractName = \"Lakshit Token Farm\";\r\n    DaiToken public daiToken;\r\n    DappToken public dappToken;\r\n    address public owner;\r\n\r\n    //constructor receives address of the deployed daitoken and dapptoken contract and then assigns it to separate state variables for further use and transactions\r\n    constructor(DaiToken _daiToken,DappToken _dappToken) public{\r\n        daiToken = _daiToken;\r\n        dappToken = _dappToken;\r\n        owner = msg.sender;\r\n    }\r\n\r\n    modifier onlyOwner(){\r\n        require(msg.sender == owner,\"only owner can call this\");\r\n        _;\r\n    }\r\n\r\n    address[] public daiStakers;\r\n    mapping(address => uint) public stakedDaiBalance;\r\n    mapping(address => bool) public hasStaked;\r\n    mapping(address => bool) public isStaking;\r\n\r\n    //function to stake dai tokens\r\n    function stakeDaiTokens(uint amountOfTokens) public{\r\n        require(amountOfTokens > 0,\"More than 0 dai tokens should be staked\");\r\n\r\n        daiToken.transferFrom(msg.sender,address(this),amountOfTokens);\r\n        stakedDaiBalance[msg.sender] += amountOfTokens;\r\n\r\n        if(!hasStaked[msg.sender])\r\n            daiStakers.push(msg.sender);\r\n        \r\n        hasStaked[msg.sender] = true;\r\n        \r\n        isStaking[msg.sender] = true;\r\n    }\r\n\r\n    //function to unstake dai tokens\r\n    function unstakeDaiTokens(uint amountToUnstake,bool totalUnstake) public{\r\n\r\n        uint amountOfTokens = stakedDaiBalance[msg.sender];\r\n        require(amountOfTokens > 0,\"More than 0 dai tokens should be staked for unstaking\");\r\n\r\n        if(totalUnstake)\r\n            amountToUnstake = amountOfTokens; \r\n\r\n        daiToken.transfer(msg.sender,amountToUnstake);\r\n        stakedDaiBalance[msg.sender] -= amountToUnstake;\r\n        \r\n        if(totalUnstake)\r\n            isStaking[msg.sender] = false;\r\n    }\r\n\r\n\r\n    //function to issue dapp tokens\r\n    function issueDappTokens() onlyOwner public{\r\n        \r\n        for(uint i = 0;i < daiStakers.length; i++){\r\n            address recpt = daiStakers[i];\r\n            uint stakedBalance = stakedDaiBalance[recpt];\r\n            uint issueAmount;\r\n            if(stakedBalance> 0){\r\n                if(stakedBalance>0 && stakedBalance <= (50 * 1 ether))\r\n                    issueAmount = (10 * 1 ether);\r\n                else if(stakedBalance>=51 && stakedBalance <= (100 * 1 ether))\r\n                    issueAmount = (20 * 1 ether);\r\n                else if(stakedBalance>=101 && stakedBalance <= (150 * 1 ether))\r\n                    issueAmount = (30 * 1 ether);\r\n                else if(stakedBalance > 150)\r\n                    issueAmount = (50 * 1 ether);\r\n                dappToken.transfer(recpt, issueAmount);\r\n            }\r\n        }\r\n    }\r\n}",
  "sourcePath": "C:\\Users\\KIIT\\Desktop\\ALL CODE ND STUFFS\\PROJECTS-REPOS\\web3 projects\\Dapps\\Token-Farm-Dapp\\src\\contracts\\TokenFarm.sol",
  "compiler": {
    "name": "solc",
    "version": "0.5.16+commit.9c3226ce.Emscripten.clang"
  },
  "schemaVersion": "3.4.5",
  "updatedAt": "2022-04-21T14:47:02.161Z",
  "devdoc": {
    "methods": {}
  },
  "userdoc": {
    "methods": {}
  }
}